:1000000009C0E8C020C0C9C01EC01DC01CC01BC0A4
:100010001AC019C011241FBECFE9CDBF10E0A0E661
:10002000B0E0E6EDF2E002C005900D92A436B10713
:10003000D9F710E0A4E6B0E001C01D92A936B107DF
:10004000E1F7E1D046C1DCCFDF93CF93CDB7DEB788
:1000500088E390E028E330E0F9012081322F2091FD
:100060006800287120952323FC012083CF91DF9124
:100070000895DF93CF93CDB7DEB788E390E028E310
:1000800030E0F9013081209168002871232BFC01B8
:100090002083CF91DF910895DF93CF93CDB7DEB763
:1000A00000008CE390E0FC018081882F90E082705A
:1000B00090700097B1F780E090E0F5D080936800F1
:1000C00080916800893120F480916800883018F4AC
:1000D00088E080936800CF91DF910895DF93CF93FC
:1000E000CDB7DEB700008CE390E0FC018081882F63
:1000F00090E0827090700097B1F72091680080E0E6
:1001000090E0622FD8D0CF91DF910895DF93CF9305
:10011000CDB7DEB7109265001092640010926600B1
:1001200010926700B9DF88E390E028E330E0F9013E
:1001300020812A61FC01208387E390E027E330E0FF
:10014000F90120812861FC01208383E590E023E50B
:1001500030E0F90120812160FC01208389E590E0F5
:1001600029E530E0F90120812260FC01208385E54A
:1001700090E025E530E0F90120812360FC01208337
:100180008BE590E02BE530E0F90120812064FC0153
:1001900020837894CF91DF9108951F920F920FB62C
:1001A0000F9211248F939F93DF93CF93CDB7DEB738
:1001B0008091640090916500019690936500809312
:1001C0006400CF91DF919F918F910F900FBE0F90A0
:1001D0001F9018951F920F920FB60F9211248F93B4
:1001E000DF93CF93CDB7DEB781E0809366001092A6
:1001F000650010926400CF91DF918F910F900FBE38
:100200000F901F901895DF93CF93CDB7DEB77EDFA9
:1002100001C0000080916400909165002EE0863A54
:10022000920718F081E0809367008091660081302A
:1002300081F780916700813099F4809168008695FC
:1002400086958695882F90E0805A9F4FFC0180818B
:10025000880F880F880F8093680040DF1092670036
:1002600080916400909165008B3B910568F08091CE
:10027000640090916500833F910520F0FADE1092B2
:100280006600C8CFE1DEC6CF809164009091650022
:100290008833910510F0EDDEBDCF80916400909120
:1002A0006500D2DEB7CFE199FECF1FBA8EBBE09AD0
:1002B00099278DB30895262FE199FECF1CBA1FBA56
:1002C0008EBB2DBB0FB6F894E29AE19A0FBE019651
:0602D0000895F894FFCF31
:0402D600000301021E
:00000001FF
